{
  "contractName": "Mc2iCagnotte",
  "abi": [
    {
      "constant": true,
      "inputs": [
        {
          "name": "",
          "type": "uint256"
        }
      ],
      "name": "getCagnotteByID",
      "outputs": [
        {
          "name": "id",
          "type": "uint256"
        },
        {
          "name": "owner",
          "type": "address"
        },
        {
          "name": "nom",
          "type": "string"
        },
        {
          "name": "montant",
          "type": "uint256"
        },
        {
          "name": "nbreContributions",
          "type": "uint256"
        },
        {
          "name": "date",
          "type": "uint256"
        },
        {
          "name": "statut",
          "type": "bool"
        }
      ],
      "payable": false,
      "stateMutability": "view",
      "type": "function"
    },
    {
      "constant": true,
      "inputs": [
        {
          "name": "",
          "type": "uint256"
        }
      ],
      "name": "getContributionByID",
      "outputs": [
        {
          "name": "id",
          "type": "uint128"
        },
        {
          "name": "CagnotteID",
          "type": "uint256"
        },
        {
          "name": "sender",
          "type": "address"
        },
        {
          "name": "montant",
          "type": "uint256"
        },
        {
          "name": "nom",
          "type": "string"
        },
        {
          "name": "mot",
          "type": "string"
        }
      ],
      "payable": false,
      "stateMutability": "view",
      "type": "function"
    },
    {
      "constant": true,
      "inputs": [
        {
          "name": "",
          "type": "address"
        },
        {
          "name": "",
          "type": "uint256"
        }
      ],
      "name": "getIDCagnotteByOwner",
      "outputs": [
        {
          "name": "",
          "type": "uint256"
        }
      ],
      "payable": false,
      "stateMutability": "view",
      "type": "function"
    },
    {
      "constant": true,
      "inputs": [
        {
          "name": "",
          "type": "address"
        },
        {
          "name": "",
          "type": "uint256"
        }
      ],
      "name": "getIDContribByOwner",
      "outputs": [
        {
          "name": "",
          "type": "uint256"
        }
      ],
      "payable": false,
      "stateMutability": "view",
      "type": "function"
    },
    {
      "anonymous": false,
      "inputs": [
        {
          "indexed": false,
          "name": "ID",
          "type": "uint256"
        },
        {
          "indexed": false,
          "name": "nom",
          "type": "string"
        },
        {
          "indexed": false,
          "name": "montant",
          "type": "uint256"
        },
        {
          "indexed": false,
          "name": "nbreContrib",
          "type": "uint256"
        },
        {
          "indexed": false,
          "name": "statut",
          "type": "bool"
        }
      ],
      "name": "CreationCagnotte",
      "type": "event"
    },
    {
      "anonymous": false,
      "inputs": [
        {
          "indexed": false,
          "name": "ContribId",
          "type": "uint128"
        },
        {
          "indexed": false,
          "name": "IDCagnotte",
          "type": "uint256"
        },
        {
          "indexed": false,
          "name": "montant",
          "type": "uint256"
        },
        {
          "indexed": false,
          "name": "nom",
          "type": "string"
        },
        {
          "indexed": false,
          "name": "mot",
          "type": "string"
        }
      ],
      "name": "ContributionCagnotte",
      "type": "event"
    },
    {
      "constant": false,
      "inputs": [
        {
          "name": "_nom",
          "type": "string"
        }
      ],
      "name": "CreerCagnotte",
      "outputs": [],
      "payable": false,
      "stateMutability": "nonpayable",
      "type": "function"
    },
    {
      "constant": false,
      "inputs": [
        {
          "name": "_id",
          "type": "uint256"
        }
      ],
      "name": "RetirerCagnotte",
      "outputs": [],
      "payable": false,
      "stateMutability": "nonpayable",
      "type": "function"
    },
    {
      "constant": false,
      "inputs": [
        {
          "name": "_id",
          "type": "uint256"
        },
        {
          "name": "_nom",
          "type": "string"
        },
        {
          "name": "_mot",
          "type": "string"
        }
      ],
      "name": "ContribuerCagnotte",
      "outputs": [
        {
          "name": "success",
          "type": "bool"
        }
      ],
      "payable": true,
      "stateMutability": "payable",
      "type": "function"
    },
    {
      "constant": true,
      "inputs": [
        {
          "name": "_id",
          "type": "uint256"
        }
      ],
      "name": "getContributionsByCagnotte",
      "outputs": [
        {
          "name": "",
          "type": "uint128[]"
        },
        {
          "name": "",
          "type": "address[]"
        },
        {
          "name": "",
          "type": "uint256[]"
        }
      ],
      "payable": false,
      "stateMutability": "view",
      "type": "function"
    }
  ],
  "bytecode": "0x6080604052600160065534801561001557600080fd5b50611950806100256000396000f30060806040526004361061008e576000357c0100000000000000000000000000000000000000000000000000000000900463ffffffff1680630a7589a3146100935780630d220cca146100fc5780630ec0c85d146101fc578063512b78eb1461037a5780635d8b954c146103a7578063aef2a15e1461046b578063ba05f8411461057d578063f7f3399d146105de575b600080fd5b34801561009f57600080fd5b506100fa600480360381019080803590602001908201803590602001908080601f016020809104026020016040519081016040528093929190818152602001838380828437820191505050505050919291929050505061063f565b005b34801561010857600080fd5b5061012760048036038101908080359060200190929190505050610980565b604051808881526020018773ffffffffffffffffffffffffffffffffffffffff1673ffffffffffffffffffffffffffffffffffffffff1681526020018060200186815260200185815260200184815260200183151515158152602001828103825287818151815260200191508051906020019080838360005b838110156101bb5780820151818401526020810190506101a0565b50505050905090810190601f1680156101e85780820380516001836020036101000a031916815260200191505b509850505050505050505060405180910390f35b34801561020857600080fd5b5061022760048036038101908080359060200190929190505050610a87565b60405180876fffffffffffffffffffffffffffffffff166fffffffffffffffffffffffffffffffff1681526020018681526020018573ffffffffffffffffffffffffffffffffffffffff1673ffffffffffffffffffffffffffffffffffffffff1681526020018481526020018060200180602001838103835285818151815260200191508051906020019080838360005b838110156102d35780820151818401526020810190506102b8565b50505050905090810190601f1680156103005780820380516001836020036101000a031916815260200191505b50838103825284818151815260200191508051906020019080838360005b8381101561033957808201518184015260208101905061031e565b50505050905090810190601f1680156103665780820380516001836020036101000a031916815260200191505b509850505050505050505060405180910390f35b34801561038657600080fd5b506103a560048036038101908080359060200190929190505050610c2f565b005b61045160048036038101908080359060200190929190803590602001908201803590602001908080601f0160208091040260200160405190810160405280939291908181526020018383808284378201915050505050509192919290803590602001908201803590602001908080601f0160208091040260200160405190810160405280939291908181526020018383808284378201915050505050509192919290505050610dda565b604051808215151515815260200191505060405180910390f35b34801561047757600080fd5b506104966004803603810190808035906020019092919050505061150b565b60405180806020018060200180602001848103845287818151815260200191508051906020019060200280838360005b838110156104e15780820151818401526020810190506104c6565b50505050905001848103835286818151815260200191508051906020019060200280838360005b83811015610523578082015181840152602081019050610508565b50505050905001848103825285818151815260200191508051906020019060200280838360005b8381101561056557808201518184015260208101905061054a565b50505050905001965050505050505060405180910390f35b34801561058957600080fd5b506105c8600480360381019080803573ffffffffffffffffffffffffffffffffffffffff1690602001909291908035906020019092919050505061176a565b6040518082815260200191505060405180910390f35b3480156105ea57600080fd5b50610629600480360381019080803573ffffffffffffffffffffffffffffffffffffffff1690602001909291908035906020019092919050505061179a565b6040518082815260200191505060405180910390f35b6106476117ca565b60e06040519081016040528060065481526020013373ffffffffffffffffffffffffffffffffffffffff1681526020018381526020016000815260200160008152602001428152602001600115158152509050600481908060018154018082558091505090600182039060005260206000209060070201600090919290919091506000820151816000015560208201518160010160006101000a81548173ffffffffffffffffffffffffffffffffffffffff021916908373ffffffffffffffffffffffffffffffffffffffff1602179055506040820151816002019080519060200190610735929190611820565b50606082015181600301556080820151816004015560a0820151816005015560c08201518160060160006101000a81548160ff0219169083151502179055505050508060008060065481526020019081526020016000206000820151816000015560208201518160010160006101000a81548173ffffffffffffffffffffffffffffffffffffffff021916908373ffffffffffffffffffffffffffffffffffffffff16021790555060408201518160020190805190602001906107f9929190611820565b50606082015181600301556080820151816004015560a0820151816005015560c08201518160060160006101000a81548160ff021916908315150217905550905050600260003373ffffffffffffffffffffffffffffffffffffffff1673ffffffffffffffffffffffffffffffffffffffff16815260200190815260200160002060065490806001815401808255809150509060018203906000526020600020016000909192909190915055507f76aadab8c0606efe5b1d69a9ea4ea40c2c26af6b08627cd6b71b35dd368798f3600654836000806001604051808681526020018060200185815260200184815260200183151515158152602001828103825286818151815260200191508051906020019080838360005b8381101561092c578082015181840152602081019050610911565b50505050905090810190601f1680156109595780820380516001836020036101000a031916815260200191505b50965050505050505060405180910390a16006600081548092919060010191905055505050565b60006020528060005260406000206000915090508060000154908060010160009054906101000a900473ffffffffffffffffffffffffffffffffffffffff1690806002018054600181600116156101000203166002900480601f016020809104026020016040519081016040528092919081815260200182805460018160011615610100020316600290048015610a585780601f10610a2d57610100808354040283529160200191610a58565b820191906000526020600020905b815481529060010190602001808311610a3b57829003601f168201915b5050505050908060030154908060040154908060050154908060060160009054906101000a900460ff16905087565b60016020528060005260406000206000915090508060000160009054906101000a90046fffffffffffffffffffffffffffffffff16908060010154908060020160009054906101000a900473ffffffffffffffffffffffffffffffffffffffff1690806003015490806004018054600181600116156101000203166002900480601f016020809104026020016040519081016040528092919081815260200182805460018160011615610100020316600290048015610b875780601f10610b5c57610100808354040283529160200191610b87565b820191906000526020600020905b815481529060010190602001808311610b6a57829003601f168201915b505050505090806005018054600181600116156101000203166002900480601f016020809104026020016040519081016040528092919081815260200182805460018160011615610100020316600290048015610c255780601f10610bfa57610100808354040283529160200191610c25565b820191906000526020600020905b815481529060010190602001808311610c0857829003601f168201915b5050505050905086565b600080600083815260200190815260200160002090503373ffffffffffffffffffffffffffffffffffffffff168160010160009054906101000a900473ffffffffffffffffffffffffffffffffffffffff1673ffffffffffffffffffffffffffffffffffffffff16141515610d32576040517f08c379a00000000000000000000000000000000000000000000000000000000081526004018080602001828103825260308152602001807f566f7573206e27c3aa74657320706173206c652070726f707269c3a97461697281526020017f65206465206c61206361676e6f7474650000000000000000000000000000000081525060400191505060405180910390fd5b3373ffffffffffffffffffffffffffffffffffffffff166108fc82600301549081150290604051600060405180830381858888f19350505050158015610d7c573d6000803e3d6000fd5b506000600460018403815481101515610d9157fe5b906000526020600020906007020160060160006101000a81548160ff02191690831515021790555060008160060160006101000a81548160ff0219169083151502179055505050565b6000806000610de76118a0565b6000808881526020019081526020016000209250600115158360060160009054906101000a900460ff161515141515610eae576040517f08c379a00000000000000000000000000000000000000000000000000000000081526004018080602001828103825260398152602001807f4c61206361676e6f74746520657374206665726dc3a9652c20766f7573206e6581526020017f20706f7576657a20706c7573207920636f6e747269627565720000000000000081525060400191505060405180910390fd5b600034111515610f4c576040517f08c379a00000000000000000000000000000000000000000000000000000000081526004018080602001828103825260378152602001807f566f7573206e6520706f7576657a2070617320636f6e7472696275657220c3a081526020017f20686175746575722064652030206d633269636f696e7300000000000000000081525060400191505060405180910390fd5b336006548787604051808573ffffffffffffffffffffffffffffffffffffffff1673ffffffffffffffffffffffffffffffffffffffff166c0100000000000000000000000002815260140184815260200183805190602001908083835b602083101515610fce5780518252602082019150602081019050602083039250610fa9565b6001836020036101000a03801982511681845116808217855250505050505090500182805190602001908083835b6020831015156110215780518252602082019150602081019050602083039250610ffc565b6001836020036101000a038019825116818451168082178552505050505050905001945050505050604051809103902060019004915060c060405190810160405280836fffffffffffffffffffffffffffffffff1681526020018881526020013373ffffffffffffffffffffffffffffffffffffffff1681526020013481526020018781526020018681525090506005819080600181540180825580915050906001820390600052602060002090600602016000909192909190915060008201518160000160006101000a8154816fffffffffffffffffffffffffffffffff02191690836fffffffffffffffffffffffffffffffff1602179055506020820151816001015560408201518160020160006101000a81548173ffffffffffffffffffffffffffffffffffffffff021916908373ffffffffffffffffffffffffffffffffffffffff160217905550606082015181600301556080820151816004019080519060200190611193929190611820565b5060a08201518160050190805190602001906111b0929190611820565b505050508060016000846fffffffffffffffffffffffffffffffff16815260200190815260200160002060008201518160000160006101000a8154816fffffffffffffffffffffffffffffffff02191690836fffffffffffffffffffffffffffffffff1602179055506020820151816001015560408201518160020160006101000a81548173ffffffffffffffffffffffffffffffffffffffff021916908373ffffffffffffffffffffffffffffffffffffffff160217905550606082015181600301556080820151816004019080519060200190611290929190611820565b5060a08201518160050190805190602001906112ad929190611820565b50905050600360003373ffffffffffffffffffffffffffffffffffffffff1673ffffffffffffffffffffffffffffffffffffffff1681526020019081526020016000208160000151908060018154018082558091505090600182039060005260206000200160009091926fffffffffffffffffffffffffffffffff16909190915055503460046001890381548110151561134357fe5b906000526020600020906007020160030160008282540192505081905550600160046001890381548110151561137557fe5b906000526020600020906007020160040160008282540192505081905550348360030160008282540192505081905550600183600401600082825401925050819055507f6ca0f62a950c04f124b0f2429e6d9fcce8ea07834dfcb7ec8718ba5d571ef42a828834898960405180866fffffffffffffffffffffffffffffffff166fffffffffffffffffffffffffffffffff1681526020018581526020018481526020018060200180602001838103835285818151815260200191508051906020019080838360005b8381101561145857808201518184015260208101905061143d565b50505050905090810190601f1680156114855780820380516001836020036101000a031916815260200191505b50838103825284818151815260200191508051906020019080838360005b838110156114be5780820151818401526020810190506114a3565b50505050905090810190601f1680156114eb5780820380516001836020036101000a031916815260200191505b5097505050505050505060405180910390a1600193505050509392505050565b60608060608060608060008060008060008b81526020019081526020016000206004015460405190808252806020026020018201604052801561155d5781602001602082028038833980820191505090505b5095506000808b8152602001908152602001600020600401546040519080825280602002602001820160405280156115a45781602001602082028038833980820191505090505b5094506000808b8152602001908152602001600020600401546040519080825280602002602001820160405280156115eb5781602001602082028038833980820191505090505b50935060009250600091505b600580549050821015611754578960058381548110151561161457fe5b90600052602060002090600602016001015414156117475760058281548110151561163b57fe5b906000526020600020906006020190508060000160009054906101000a90046fffffffffffffffffffffffffffffffff16868481518110151561167a57fe5b906020019060200201906fffffffffffffffffffffffffffffffff1690816fffffffffffffffffffffffffffffffff16815250508060020160009054906101000a900473ffffffffffffffffffffffffffffffffffffffff1685848151811015156116e157fe5b9060200190602002019073ffffffffffffffffffffffffffffffffffffffff16908173ffffffffffffffffffffffffffffffffffffffff16815250508060030154848481518110151561173057fe5b906020019060200201818152505082806001019350505b81806001019250506115f7565b8585859850985098505050505050509193909250565b60026020528160005260406000208181548110151561178557fe5b90600052602060002001600091509150505481565b6003602052816000526040600020818154811015156117b557fe5b90600052602060002001600091509150505481565b60e06040519081016040528060008152602001600073ffffffffffffffffffffffffffffffffffffffff168152602001606081526020016000815260200160008152602001600081526020016000151581525090565b828054600181600116156101000203166002900490600052602060002090601f016020900481019282601f1061186157805160ff191683800117855561188f565b8280016001018555821561188f579182015b8281111561188e578251825591602001919060010190611873565b5b50905061189c91906118ff565b5090565b60c06040519081016040528060006fffffffffffffffffffffffffffffffff16815260200160008152602001600073ffffffffffffffffffffffffffffffffffffffff1681526020016000815260200160608152602001606081525090565b61192191905b8082111561191d576000816000905550600101611905565b5090565b905600a165627a7a72305820750f50f3ff5695b1760dc86d01541d6f1c1d4f9819d6666a52c86716a4c763b50029",
  "source": "pragma solidity ^0.4.24;\n\n\n/// @title Smart-Contract de gestion des cagnottes des consultants mc²i\n/// @author ClubInnovation&Technologies\ncontract Mc2iCagnotte {\n\n    struct Cagnotte {\n        uint id;\n        address owner;\n        string nom;\n        uint montant;\n        uint nbreContributions;\n        uint date;\n        bool statut;\n    }\n    \n    struct Contribution {\n        uint128 id;\n        uint CagnotteID;\n        address sender;\n        uint montant;\n        string nom;\n        string mot;\n    }\n    \n    event CreationCagnotte(uint ID, string nom, uint montant, uint nbreContrib, bool statut);\n    event ContributionCagnotte (uint128 ContribId, uint IDCagnotte, uint montant, string nom, string mot);\n    \n    //Get des cagnottes par leur ID\n    mapping(uint => Cagnotte) public getCagnotteByID;\n    //Get des contributions par leur ID\n\tmapping(uint => Contribution) public getContributionByID;\n    //Get des ID cagnottes par utilisateur\n    mapping(address => uint[]) public getIDCagnotteByOwner;\n\t//Get des ID contributions par utilisateur\n    mapping(address => uint[]) public getIDContribByOwner;\n    \n    Cagnotte[] cagnottes;\n    Contribution[] contributions;\n    \n    //Variable globale d'ID de cagnottes\n    uint idCagnotte = 1;\n\n    /// @notice Crée la cagnotte avec seulement un nom\n    /// @param _nom Le nom de la cagnotte\n    function CreerCagnotte(string _nom) public {\n        Cagnotte memory _cagnotte = Cagnotte(idCagnotte, msg.sender, _nom, 0, 0, now, true);\n        //On met la cagnotte dans le tableau global\n        cagnottes.push(_cagnotte);\n        //On pousse la cagnotte dans le mapping\n        getCagnotteByID[idCagnotte] = _cagnotte;\n        getIDCagnotteByOwner[msg.sender].push(idCagnotte);\n        //On envoie l'event pour le front\n        emit CreationCagnotte(idCagnotte, _nom, 0, 0, true);\n        //On incrémente la variable pour la cagnotte suivante\n        idCagnotte++;\n    }\n\n    /// @notice Retire le montant d'une cagnotte dont on est le propriétaire, entraînant sa fermeture\n    /// @param _id L'ID de la cagnotte\n    function RetirerCagnotte(uint _id) public {\n        Cagnotte storage c = getCagnotteByID[_id];\n        //La personne qui doit retirer la cagnotte doit être son propriétaire\n        require (c.owner == msg.sender, \"Vous n'êtes pas le propriétaire de la cagnotte\");\n        //On transfert le montant de la cagnotte à son propriétaire\n\t\tmsg.sender.transfer(c.montant);\n\t\t//On ferme la cagnotte\n\t\tcagnottes[_id-1].statut = false;\n\t\tc.statut = false;\n\n    }\n\n    /// @notice Contribue à une cagnotte, en laissant un nom et un mot avec le montant\n    /// @param _id L'ID de la cagnotte\n    /// @param _nom Le nom du contributeur\n    /// @param _mot Le mot laissé par le contributeur\n    /// @return bool Succès de la contribution\n    function ContribuerCagnotte(uint _id, string _nom, string _mot) payable public returns (bool success) {\n        Cagnotte storage c = getCagnotteByID[_id];\n        require (c.statut == true, \"La cagnotte est fermée, vous ne pouvez plus y contribuer\");\n        require (msg.value > 0, \"Vous ne pouvez pas contribuer à hauteur de 0 mc2icoins\");\n        \n        //ID de la contrib = Hachage de l'adresse de l'expéditeur, du numéro de la cagnotte, du nom et mot laissé\n        uint128 ContribId = uint128(keccak256(msg.sender, idCagnotte, _nom, _mot));\n        \n        //On l'insère dans le tableau des contributions\n        Contribution memory _contribution = Contribution(ContribId, _id, msg.sender, msg.value, _nom, _mot);\n        contributions.push(_contribution);\n        \n        //On l'insère dans le mapping\n        getContributionByID[ContribId] = _contribution;\n\t\tgetIDContribByOwner[msg.sender].push(_contribution.id);\n\t\t//On met à jour les montants / nombre de contributions dans le tableau / mapping\t\t\t\t\n\t\tcagnottes[_id-1].montant += msg.value;\n\t\tcagnottes[_id-1].nbreContributions += 1;\n\t\tc.montant += msg.value;\n\t\tc.nbreContributions += 1;\n\t\t\t\t\n\t\t//On émet l'event\n\t\temit ContributionCagnotte(ContribId, _id, msg.value, _nom, _mot);\n\t\t\n\t\treturn (true);\n    }\n\n    /// @notice Permet d'obtenir chaque contribution relatives à une cagnotte\n    /// @dev Ne retourne pour l'instant que des tableaux d'adresses et d'int, une solution pour les noms et mots est en cours d'investigation\n    /// @param _id L'ID de la cagnotte\n    /// @return uint128[] Tableau des ID des contributions\n    /// @return address[] Tableau des adresses des contributeurs\n    /// @return uint[] Tableau des montants des contributions\n    function getContributionsByCagnotte(uint _id) public view returns (uint128[], address[], uint[]) {\n        //On réserve trois tableaux et on fixe leur taille avec le nombre de contributions de la cagnotte\n\t\tuint128[] memory _idContribs = new uint128[](getCagnotteByID[_id].nbreContributions);\n\t\taddress[] memory _contribs = new address[](getCagnotteByID[_id].nbreContributions);\n        uint[] memory _montants = new uint[](getCagnotteByID[_id].nbreContributions);\n        uint counter = 0;\n\t\t//On itère dans le tableau des contributions, à la recherhe des contributions liées à la cagnotte\n        for (uint i = 0 ; i < contributions.length ; i++) {\n\t\t\t//Dès qu'on en trouve une\n            if (contributions[i].CagnotteID == _id) {\n\t\t\t\t//On charge ses paramètres dans les trois tableaux temporaires\n                Contribution storage contrib = contributions[i];\n                _idContribs[counter] = contrib.id;\n                _contribs[counter] = contrib.sender;\n                _montants[counter] = contrib.montant;\n                counter++;\n            }\n        }\n        return(_idContribs, _contribs, _montants);\n    }\n}",
  "sourcePath": "/home/blockchain/Documents/poc-mc2icagnotte/contracts/Mc2iCagnotte.sol",
  "compiler": {
    "name": "solc",
    "version": "0.4.24+commit.e67f0147.Emscripten.clang"
  },
  "schemaVersion": "2.0.1",
  "updatedAt": "2018-10-20T14:40:28.507Z"
}